:020000000000fe
:0200010003fefc
:0200020003fcfd
:0200030003fafe
:0200040003f8ff
:0200050003f600
:0200060003f401
:0200070003f202
:0200080003f003
:0200090003ee04
:02000a0003ec05
:02000b0003ea06
:02000c0003e807
:02000d0003e608
:02000e0003e409
:02000f0003e20a
:0200100003e00b
:0200110003de0c
:0200120003dc0d
:0200130003da0e
:0200140003d80f
:0200150003d610
:0200160003d411
:0200170003d212
:0200180003d013
:0200190003ce14
:02001a0003cc15
:02001b0003ca16
:02001c0003c817
:02001d0003c618
:02001e0003c419
:02001f0003c21a
:0200200003c01b
:0200210003be1c
:0200220003bc1d
:0200230003ba1e
:0200240003b81f
:0200250003b620
:0200260003b421
:0200270003b222
:0200280003b023
:0200290003ae24
:02002a0003ac25
:02002b0003aa26
:02002c0003a827
:02002d0003a628
:02002e0003a429
:02002f0003a22a
:0200300003a02b
:02003100039e2c
:02003200039c2d
:02003300039a2e
:0200340003982f
:02003500039630
:02003600039431
:02003700039232
:02003800039033
:02003900038e34
:02003a00038c35
:02003b00038a36
:02003c00038837
:02003d00038638
:02003e00038439
:02003f0003823a
:0200400003803b
:02004100037e3c
:02004200037c3d
:02004300037a3e
:0200440003783f
:02004500037640
:02004600037441
:02004700037242
:02004800037043
:02004900036e44
:02004a00036c45
:02004b00036a46
:02004c00036847
:02004d00036648
:02004e00036449
:02004f0003624a
:0200500003604b
:02005100035e4c
:02005200035c4d
:02005300035a4e
:0200540003584f
:02005500035650
:02005600035451
:02005700035252
:02005800035053
:02005900034e54
:02005a00034c55
:02005b00034a56
:02005c00034857
:02005d00034658
:02005e00034459
:02005f0003425a
:0200600003405b
:02006100033e5c
:02006200033c5d
:02006300033a5e
:0200640003385f
:02006500033660
:02006600033461
:02006700033262
:02006800033063
:02006900032e64
:02006a00032c65
:02006b00032a66
:02006c00032867
:02006d00032668
:02006e00032469
:02006f0003226a
:0200700003206b
:02007100031e6c
:02007200031c6d
:02007300031a6e
:0200740003186f
:02007500031670
:02007600031471
:02007700031272
:02007800031073
:02007900030e74
:02007a00030c75
:02007b00030a76
:02007c00030877
:02007d00030678
:02007e00030479
:02007f0003027a
:0200800003007b
:0200810002fe7d
:0200820002fc7e
:0200830002fa7f
:0200840002f880
:0200850002f681
:0200860002f482
:0200870002f283
:0200880002f084
:0200890002ee85
:02008a0002ec86
:02008b0002ea87
:02008c0002e888
:02008d0002e689
:02008e0002e48a
:02008f0002e28b
:0200900002e08c
:0200910002de8d
:0200920002dc8e
:0200930002da8f
:0200940002d890
:0200950002d691
:0200960002d492
:0200970002d293
:0200980002d094
:0200990002ce95
:02009a0002cc96
:02009b0002ca97
:02009c0002c898
:02009d0002c699
:02009e0002c49a
:02009f0002c29b
:0200a00002c09c
:0200a10002be9d
:0200a20002bc9e
:0200a30002ba9f
:0200a40002b8a0
:0200a50002b6a1
:0200a60002b4a2
:0200a70002b2a3
:0200a80002b0a4
:0200a90002aea5
:0200aa0002aca6
:0200ab0002aaa7
:0200ac0002a8a8
:0200ad0002a6a9
:0200ae0002a4aa
:0200af0002a2ab
:0200b00002a0ac
:0200b100029ead
:0200b200029cae
:0200b300029aaf
:0200b4000298b0
:0200b5000296b1
:0200b6000294b2
:0200b7000292b3
:0200b8000290b4
:0200b900028eb5
:0200ba00028cb6
:0200bb00028ab7
:0200bc000288b8
:0200bd000286b9
:0200be000284ba
:0200bf000282bb
:0200c0000280bc
:0200c100027ebd
:0200c200027cbe
:0200c300027abf
:0200c4000278c0
:0200c5000276c1
:0200c6000274c2
:0200c7000272c3
:0200c8000270c4
:0200c900026ec5
:0200ca00026cc6
:0200cb00026ac7
:0200cc000268c8
:0200cd000266c9
:0200ce000264ca
:0200cf000262cb
:0200d0000260cc
:0200d100025ecd
:0200d200025cce
:0200d300025acf
:0200d4000258d0
:0200d5000256d1
:0200d6000254d2
:0200d7000252d3
:0200d8000250d4
:0200d900024ed5
:0200da00024cd6
:0200db00024ad7
:0200dc000248d8
:0200dd000246d9
:0200de000244da
:0200df000242db
:0200e0000240dc
:0200e100023edd
:0200e200023cde
:0200e300023adf
:0200e4000238e0
:0200e5000236e1
:0200e6000234e2
:0200e7000232e3
:0200e8000230e4
:0200e900022ee5
:0200ea00022ce6
:0200eb00022ae7
:0200ec000228e8
:0200ed000226e9
:0200ee000224ea
:0200ef000222eb
:0200f0000220ec
:0200f100021eed
:0200f200021cee
:0200f300021aef
:0200f4000218f0
:0200f5000216f1
:0200f6000214f2
:0200f7000212f3
:0200f8000210f4
:0200f900020ef5
:0200fa00020cf6
:0200fb00020af7
:0200fc000208f8
:0200fd000206f9
:0200fe000204fa
:0200ff000202fb
:00000001ff
